:100000000C942A000C9447000C9447000C94470071
:100010000C9447000C9447000C9447000C94470044
:100020000C9447000C9447000C9447000C94470034
:100030000C9447000C9447000C9447000C94470024
:100040000C9447000C9447000C9447000C94470014
:100050000C94470011241FBECFE5D8E0DEBFCDBF12
:1000600010E0A0E6B0E0ECE5FBE002C005900D92E8
:10007000AC3CB107D9F720E0ACECB0E001C01D9278
:10008000A03DB207E1F70E94A1040C94AC050C94CA
:1000900000000E945D040E9455020E94960160E0EB
:1000A00084E40C948D010E94C8018823E1F3089533
:1000B0000F931F93CF9380EC0E940E020CEC10E084
:1000C000F0E0003D1F07D9F00E94C801C82F882327
:1000D000B9F360E084E40E9490018AE20E947D020C
:1000E00060E070E088EC92E40E94690460E084E4DF
:1000F0000E949301C053F801C1938F01E1CFCF91CA
:100100001F910F9108951F93CF93DF93C0E2D0E02A
:10011000C432D105E9F00E94C801182F8823C1F329
:1001200060E084E40E9490018AE20E947D0260E027
:1001300070E088EC92E40E94690460E084E40E942C
:10014000930160ED610FCE010E944E042196E0CF35
:10015000DF91CF911F910895CF93DF93C0E2D0E05C
:1001600060E0CE010E944E042196C432D105C1F751
:10017000DF91CF910895FF920F931F93CF93DF9359
:100180000CEC10E0C0E2D0E0F801F1908F01CE015C
:100190000E945604F81206C02196C432D105A1F778
:1001A00080E001C081E0DF91CF911F910F91FF901E
:1001B0000895DF92EF92FF920F931F93CF93DF93F7
:1001C000CDB7DEB72A970FB6F894DEBF0FBECDBF0E
:1001D0000E942A036CE670E080E00E94C4020E9444
:1001E00058000E94BB008111F3CF0E942A036CE7E4
:1001F00070E080E00E94C40260E070E08AEF94E466
:100200000E9469040E942A0365E870E081E00E9470
:10021000C40266E970E080E00E94C4020E945300BC
:10022000182F60E084E40E94900160E070E088ECA8
:1002300092E40E94690460E084E40E949301133216
:1002400089F40E942A036EE970E080E00E94C402F3
:1002500080EC0E940E020E9483000E942A036CEA36
:1002600070E037C0103309F04AC00E942A0380E3CF
:100270000E947D028E010F5F1F4F7E018AE0E80E13
:10028000F11C0E945300D82EF80181938F0160E089
:1002900084E40E9490018D2D0E947D0260E070E058
:1002A00088EC92E40E94690460E084E40E94930177
:1002B0000E151F0531F7FE01329681918033F9F456
:1002C000EE15FF05D1F70E94AC000E942A036DEBEA
:1002D00070E080E00E94C40260E070E08AEF94E485
:1002E0002A960FB6F894DEBF0FBECDBFDF91CF9137
:1002F0001F910F91FF90EF90DF900C9469042A9664
:100300000FB6F894DEBF0FBECDBFDF91CF911F9126
:100310000F91FF90EF90DF90089541E00C942D0332
:1003200041E00C94970340E00C94970341E060E0B7
:1003300082E40E942D0341E061E082E40E942D03EB
:1003400041E062E082E40E942D0341E063E082E448
:100350000E942D0340E064E082E40E942D0340E00F
:1003600065E082E40E942D0340E066E082E40E94A2
:100370002D0341E064E082E40E94970341E065E0E0
:1003800082E40E94970341E066E082E40C949703C4
:10039000CF93DF9341E060E082E40E94970341E065
:1003A00061E082E40E94970341E062E082E40E94FF
:1003B000970341E063E082E40E949703C0E040E0DD
:1003C0006C2F82E40E949703D4E06D2F82E40E9498
:1003D0003404811114C06D2F82E40E9434048823F8
:1003E000D1F36C2F70E0FB01EE0FFF1FE60FF71F3C
:1003F000E05AFF4FED0FF11D349780810CC0DF5F95
:10040000D73019F741E06C2F82E40E949703CF5F49
:10041000C430A9F680E0DF91CF910895A998AA98F9
:1004200087FD02C0AF9801C0AF9A86FD02C0AE98AA
:1004300001C0AE9A85FD02C0AD9801C0AD9A84FDA1
:1004400002C0AC9801C0AC9AAB9AEFE9FFE03197DB
:10045000F1F700C00000AB98EFE9FFE03197F1F74A
:1004600000C0000083FD02C0AF9801C0AF9A82FDBA
:1004700002C0AE9801C0AE9A81FD02C0AD9801C025
:10048000AD9A80FD02C0AC9801C0AC9AAB9A8FE9DE
:100490009FE00197F1F700C00000AB98EFE9FFE0A3
:1004A0003197F1F700C00000089584B38E6F84BBCC
:1004B0002FEF83EF91E0215080409040E1F700C0A2
:1004C000000083E00E940E0220ED2A95F1F782E001
:1004D0000E940E0288E20E940E0285EC8A95F1F7D6
:1004E000000088E00E940E0281E00E940E0286E079
:1004F0000E940E028FE00C940E02A99AAA9887FD22
:1005000002C0AF9801C0AF9A86FD02C0AE9801C08C
:10051000AE9A85FD02C0AD9801C0AD9A84FD02C0BF
:10052000AC9801C0AC9AAB9AEFE9FFE03197F1F7D4
:1005300000C00000AB98EFE9FFE03197F1F700C091
:10054000000083FD02C0AF9801C0AF9A82FD02C0D7
:10055000AE9801C0AE9A81FD02C0AD9801C0AD9ABF
:1005600080FD02C0AC9801C0AC9AAB9A8FE99FE0C5
:100570000197F1F700C00000AB98EFE9FFE0319779
:10058000F1F700C0000008950F931F93CF93DF93FE
:10059000162F072F811106C080E80E940E02C12F7E
:1005A000D02F04C08130D9F780ECF7CF8991882310
:1005B00019F00E947D02FACFDF91CF911F910F9128
:1005C00008950F931F93CF93DF9300D000D01F9215
:1005D000CDB7DEB7009761F480E30F900F900F90D6
:1005E0000F900F90DF91CF911F910F910C947D028E
:1005F00020E00AE010E0E1E0F0E0EC0FFD1FE20F88
:10060000F11D27FDFA95B8010E94A604805D808344
:10061000CB0131E0320F009711F0232FECCF27FDF3
:100620000FC01FEF120FE1E0F0E0EC0FFD1FE20F33
:10063000F11D27FDFA9580810E947D02212FEFCFC9
:100640000F900F900F900F900F90DF91CF911F910F
:100650000F91089581E00C940E02413079F58234B7
:1006600091F018F4813431F008958334A9F0843482
:10067000E1F008952AB381E090E001C0880F6A9507
:10068000EAF7822B31C027B381E090E001C0880FE8
:100690006A95EAF7822B33C024B381E090E001C071
:1006A000880F6A95EAF7822B35C021B381E090E08C
:1006B00001C0880F6A95EAF7822B37C0411136C016
:1006C0008234A1F018F4813431F008958334C9F0F4
:1006D000843411F108952AB381E090E001C0880FBD
:1006E0006A95EAF7809582238ABB089527B381E053
:1006F00090E001C0880F6A95EAF78095822387BB56
:10070000089524B381E090E001C0880F6A95EAF76C
:100710008095822384BB089521B381E090E001C0DD
:10072000880F6A95EAF78095822381BB089541304E
:1007300079F5823491F018F4813431F008958334DE
:10074000A9F08434E1F008952BB381E090E001C07A
:10075000880F6A95EAF7822B31C028B381E090E0D8
:1007600001C0880F6A95EAF7822B33C025B381E078
:1007700090E001C0880F6A95EAF7822B35C022B35A
:1007800081E090E001C0880F6A95EAF7822B37C0BC
:10079000411136C08234A1F018F4813431F008954B
:1007A0008334C9F0843411F108952BB381E090E0D3
:1007B00001C0880F6A95EAF7809582238BBB089564
:1007C00028B381E090E001C0880F6A95EAF7809530
:1007D000822388BB089525B381E090E001C0880F93
:1007E0006A95EAF78095822385BB089522B381E05C
:1007F00090E001C0880F6A95EAF78095822382BB5A
:100800000895823499F018F4813431F008958334D6
:10081000B9F08434F9F008952BB381E090E001C081
:10082000880F6A95EAF782278BBB089528B381E089
:1008300090E001C0880F6A95EAF7822788BB089587
:1008400025B381E090E001C0880F6A95EAF782271E
:1008500085BB089522B381E090E001C0880F6A95BE
:10086000EAF7822782BB0895823459F020F481345C
:1008700099F489B309C0833431F0843469F480B3C6
:1008800003C086B301C083B390E002C095958795FD
:100890006A95E2F7817008958FEF0895E199FECF90
:1008A0009FBB8EBB6DBBE29AE19A0895E199FECFA2
:1008B0009FBB8EBBE09A8DB3089513BE12BE89B75D
:1008C000816089BF83B7816083BF83B7826083BF44
:1008D000089520E030E04AE754E40E94BA042DEB8A
:1008E00037E346E85AE30E94BA040E942C0580E0F0
:1008F00090E08617970741F008B600FEFDCF28B7B5
:10090000216028BF0196F5CF089520E034E244E746
:1009100059E40E94BA042DEB37E346E85AE30E94FB
:10092000BA040E942C0580E090E08617970741F0FA
:1009300008B600FEFDCF28B7216028BF0196F5CF8D
:1009400008950E9449000E94D900FDCFAA1BBB1B3D
:1009500051E107C0AA1FBB1FA617B70710F0A61BBF
:10096000B70B881F991F5A95A9F780959095BC01E0
:10097000CD0108950E94CE040C9472050E946B056F
:1009800058F00E94640540F029F45F3F29F00C9470
:100990005B0551110C94A6050C9461050E9483051A
:1009A00068F39923B1F3552391F3951B550BBB279E
:1009B000AA2762177307840738F09F5F5F4F220FE3
:1009C000331F441FAA1FA9F335D00E2E3AF0E0E8DA
:1009D00032D091505040E695001CCAF72BD0FE2F24
:1009E00029D0660F771F881FBB1F261737074807B8
:1009F000AB07B0E809F0BB0B802DBF01FF27935870
:100A00005F4F3AF09E3F510578F00C945B050C94D3
:100A1000A6055F3FE4F3983ED4F3869577956795F6
:100A2000B795F7959F5FC9F7880F911D96958795A4
:100A300097F90895E1E0660F771F881FBB1F6217C3
:100A400073078407BA0720F0621B730B840BBA0B81
:100A5000EE1F88F7E09508950E948B0588F09F5758
:100A600098F0B92F9927B751B0F0E1F0660F771FD2
:100A7000881F991F1AF0BA95C9F714C0B13091F0C8
:100A80000E94A505B1E008950C94A505672F782F65
:100A90008827B85F39F0B93FCCF38695779567958D
:100AA000B395D9F73EF490958095709561957F4FF9
:100AB0008F4F9F4F089597F99F6780E870E060E03F
:100AC00008959FEF80EC089500240A9416161706E7
:100AD00018060906089500240A941216130614062F
:100AE00005060895092E0394000C11F4882352F092
:100AF000BB0F40F4BF2B11F460FF04C06F5F7F4F4A
:100B00008F4F9F4F089557FD9058440F551F59F030
:100B10005F3F71F04795880F97FB991F61F09F3FEA
:100B200079F087950895121613061406551FF2CF13
:100B30004695F1DF08C0161617061806991FF1CF63
:100B400086957105610508940895E894BB2766278A
:0C0B50007727CB0197F90895F894FFCFA8
:100B5C003132333435363738392A3023456E7465A3
:100B6C00722050617373776F72643A00556E6C6FBC
:100B7C00636B6564002A3A45585420303A52455309
:100B8C0020233A4E570043686F6963653A004E65FF
:100B9C00772050617373776F72643A00506173738E
:100BAC00776F7264206368616E676564005061736F
:0C0BBC0073776F726420726573657400BB
:00000001FF
